:1000000046C2000065C2000063C2000061C2000079
:100010005FC200005DC200005BC2000059C2000068
:1000200057C2000055C2000053C200000C94C5081E
:100030004FC200004DC200000C94FA080C9427092E
:100040000C9454090C9481090C94AE090C94DB09AE
:100050000C94080A0C94350A0C94620A0C948F0ACA
:1000600037C2000035C2000033C2000031C20000B8
:100070002FC200002DC200002BC2000029C20000C8
:1000800027C2000025C2000023C2000021C20000D8
:100090001FC200001DC200001BC2000064C6000099
:1000A00094C60000C4C60000F4C6000011C20000DF
:1000B0000FC200000DC200000BC200000C947E0CA9
:1000C0000C94AB0C0C94D80C0C94050D0C94320DC4
:1000D0000C945F0D0C948C0D0C94B90D0C94E60DE2
:1000E0000C94130EF5C10000F3C10000F1C1000033
:1000F000EFC10000EDC10000EBC10000E9C100004C
:10010000E7C10000E5C10000E3C10000E1C100005B
:10011000DFC10000DDC10000DBC100005CC50000E4
:100120008CC50000BCC50000ECC50000D1C10000BA
:10013000CFC100000C94BC0A0C94E90A0C94160B75
:100140000C94430B0C94700B0C949D0B0C94CA0BE9
:100150000C94F70B0C94240C0C94510CB9C10000B6
:10016000B7C10000B5C10000B3C10000B1C10000BB
:10017000AFC10000ADC10000ABC10000A9C10000CB
:10018000A7C10000A5C10000A3C10000A1C10000DB
:100190009FC100009DC100009BC1000099C10000EB
:1001A00097C1000095C1000093C1000091C10000FB
:1001B0000C94400E0C946D0E0C949A0E0C94C70E79
:1001C0000C94F40E0C94210F83C1000081C1000037
:1001D0007FC100007DC100007BC1000079C100002B
:1001E00077C1000075C1000073C1000071C100003B
:1001F0006FC100006DC100006BC100000000000075
:10020000000000202020202000205050500000003E
:10021000005050F850F850502078A07028F020C0BE
:10022000C810204098186090A040A89068602040B6
:10023000000000001020404040201040201010100E
:100240002040005020F8205000002020F8202000FE
:1002500000000000602040000000F80000000000E6
:10026000000000606000081020408000708898A89E
:10027000C8887020602020202070708808102040DE
:10028000F8F810201008887010305090F81010F80E
:1002900080F008088870304080F0888870F8081076
:1002A00020404040708888708888707088887808FE
:1002B00010600060600060600000606000602040CE
:1002C000081020402010080000F800F800008040CE
:1002D0002010204080708808102000207088086856
:1002E000A8A87070888888F88888F08888F088883E
:1002F000F070888080808870E09088888890E0F82E
:100300008080F08080F8F88080E080808070888035
:1003100080988870888888F88888887020202020B5
:100320002070381010101090608890A0C0A09088A5
:10033000808080808080F888D8A88888888888888D
:10034000C8A898888870888888888870F08888F01D
:1003500080808070888888A89068F08888F0A09055
:1003600088788080700808F0F820202020202088DD
:1003700088888888887088888888885020888888B5
:10038000A8A8D8888888502050888888885020203D
:100390002020F80810204080F83820202020203825
:1003A00000804020100800E02020202020E0205085
:1003B0008800000000000000000000F8402010004D
:1003C000000000000070087888788080B0C88888B5
:1003D000F00000708080887008086898888878002D
:1003E000007088F88070304840E04040400000785D
:1003F000887808308080B0C88888882000602020F5
:1004000020701000301010906040404850605048FC
:10041000602020202020700000D0A8A8888800003C
:10042000B0C8888888000070888888700000F088CC
:10043000F08080000068987808080000B0C88080CC
:1004400080000070807008F04040E040404830007C
:100450000088888898680000888888502000008874
:1004600088A8A8500000885020508800008888780C
:1004700008700000F8102040F810202040202010C4
:100480002020202020202040202010202040112447
:100490001FBECFEFCDBFDFE5DEBF00E00CBF10E237
:1004A000A0E0B0E2E6E2F2E300E00BBF02C007909A
:1004B0000D92AE32B107D9F723E2AEE2B0E201C04D
:1004C0001D92A035B207E1F70E944D150C94111949
:1004D00097CD04C0615071098109910961157105B9
:1004E00081059105B9F70895BF92CF92DF92EF92FF
:1004F000FF920F931F93CF93DF931F92CDB7DEB779
:1005000000E016E06894FF24F3F8F801F68264E056
:1005100070E080E090E0DDDFF801F58264E070E0FB
:1005200080E090E0D6DF0F2EFBE2BF2EF02DB982E7
:1005300080EA99E00E941212C12CD12C760100E4CD
:1005400012E42FE030E043E0BE016F5F7F4F80EAAE
:1005500099E00E94411200E616E0FF24F394F801AE
:10056000F682B982BE016F5F7F4F80EA99E00E94F8
:100570005B12F801F682E0EAF9E0818185FFFDCFA8
:1005800080EA8093A009E0EAF9E0818186FFFDCF4F
:10059000E0EAF9E080E481838081BE016F5F7F4FF4
:1005A00080EA99E00E9471128BE28983BE016F5F3D
:1005B0007F4F80EA99E00E945B1281E0809366069B
:1005C000E0EAF9E0818185FFFDCF86EA8093A0090A
:1005D000E0EAF9E0818186FFFDCFE0EAF9E080E41E
:1005E00081838081BE016F5F7F4F80EA99E00E9426
:1005F00071128BE28983BE016F5F7F4F80EA99E0C1
:100600000E945B1281E080936606E0EAF9E0818156
:1006100085FFFDCF88EC8093A009E0EAF9E08181B5
:1006200086FFFDCFE0EAF9E080E481838081BE01AE
:100630006F5F7F4F80EA99E00E9471128BE289839D
:10064000BE016F5F7F4F80EA99E00E945B1281E0FC
:1006500080936606E0EAF9E0818185FFFDCF82EABA
:100660008093A009E0EAF9E0818186FFFDCFE0EA0E
:10067000F9E080E481838081BE016F5F7F4F80EA73
:1006800099E00E9471128BE28983BE016F5F7F4FF8
:1006900080EA99E00E945B1281E080936606E0EABE
:1006A000F9E0818185FFFDCF8FE28093A009E0EA28
:1006B000F9E0818186FFFDCFE0EAF9E080E4818303
:1006C0008081BE016F5F7F4F80EA99E00E947112C6
:1006D0008BE28983BE016F5F7F4F80EA99E00E94C1
:1006E0005B1281E080936606E0EAF9E0818185FF94
:1006F000FDCF88EF8093A009E0EAF9E0818186FFD1
:10070000FDCFE0EAF9E080E481838081BE016F5F84
:100710007F4F80EA99E00E9471128BE28983BE01CB
:100720006F5F7F4F80EA99E00E945B1281E08093C7
:100730006606E0EAF9E0818185FFFDCF1092A0090D
:10074000E0EAF9E0818186FFFDCFE0EAF9E080E4AC
:1007500081838081BE016F5F7F4F80EA99E00E94B4
:1007600071128BE28983BE016F5F7F4F80EA99E04F
:100770000E945B1281E080936606E0EAF9E08181E5
:1007800085FFFDCF81E28093A009E0EAF9E0818155
:1007900086FFFDCFE0EAF9E080E481838081BE013D
:1007A0006F5F7F4F80EA99E00E9471128BE289832C
:1007B000BE016F5F7F4F80EA99E00E945B1281E08B
:1007C00080936606E0EAF9E0818185FFFDCF81E84C
:1007D0008093A009E0EAF9E0818186FFFDCFE0EA9D
:1007E000F9E080E481838081BE016F5F7F4F80EA02
:1007F00099E00E9471128BE28983BE016F5F7F4F87
:1008000080EA99E00E945B1281E080936606E0EA4C
:10081000F9E0818185FFFDCF81E28093A009E0EAC4
:10082000F9E0818186FFFDCFE0EAF9E080E4818391
:100830008081BE016F5F7F4F80EA99E00E94711254
:100840008BE28983BE016F5F7F4F80EA99E00E944F
:100850005B1281E080936606E0EAF9E0818185FF22
:10086000FDCF8FEA8093A009E0EAF9E0818186FF5D
:10087000FDCFE0EAF9E080E481838081BE016F5F13
:100880007F4F80EA99E00E9471120F90DF91CF9123
:100890001F910F91FF90EF90DF90CF90BF90089540
:1008A000FF920F931F93CF93DF931F92CDB7DEB7C5
:1008B000082FF62E142F0E948C120F70006B8BE203
:1008C0008983BE016F5F7F4F80EA99E00E945B12CF
:1008D00081E080936606E0EAF9E0918195FFFDCF23
:1008E0000093A009E0EAF9E0818186FFFDCFE0EA0C
:1008F000F9E080E481838081BE016F5F7F4F80EAF1
:1009000099E00E9471120F2D0F7702950F70006110
:100910008BE28983BE016F5F7F4F80EA99E00E947E
:100920005B1281E080936606E0EAF9E0818185FF51
:10093000FDCF0093A009E0EAF9E0818186FFFDCFB9
:10094000E0EAF9E080E481838081BE016F5F7F4F40
:1009500080EA99E00E9471120F2D0F708BE289835B
:10096000BE016F5F7F4F80EA99E00E945B1281E0D9
:1009700080936606E0EAF9E0818185FFFDCF009370
:10098000A009E0EAF9E0818186FFFDCFE0EAF9E025
:1009900080E481838081BE016F5F7F4F80EA99E0B0
:1009A0000E9471128BE28983BE016F5F7F4F80EAE4
:1009B00099E00E945B1281E080936506E0EAF9E02D
:1009C000818185FFFDCF1093A009E0EAF9E08181E4
:1009D00086FFFDCFE0EAF9E080E48183808181E059
:1009E00080936606BE016F5F7F4F80EA99E00E94A8
:1009F00071120F90DF91CF911F910F91FF90089589
:100A00000F931F93CF93DF931F92CDB7DEB78EE284
:100A100090E20E94871268DD8BE28983BE016F5FDE
:100A20007F4F80EA99E00E945B1281E08093660626
:100A3000E0EAF9E0818185FFFDCF80E48093A009A1
:100A4000E0EAF9E0818186FFFDCFE0EAF9E080E4A9
:100A500081838081BE016F5F7F4F80EA99E00E94B1
:100A6000711200E00AC040E0612F802F19DF1F5F84
:100A70001038C9F70F5F043011F010E0F4CF0F9079
:100A8000DF91CF911F910F910895FF920F931F93C4
:100A9000CF93DF93882354F1603240F5D42FC82FD1
:100AA000F62EF694F694F69470E088E0F89E6019BD
:100AB0007109112481E090E08C0102C0000F111F28
:100AC0006A95E2F76C2F8F2D0E949A12D13021F097
:100AD00028F0D23031F006C0802B04C0009580236E
:100AE00001C08027482F6C2F8F2DDADEDF91CF9148
:100AF0001F910F91FF9008950C949A1208958115FB
:100B000022E0920769F480912F2291E0980F909350
:100B10002F22811114C062E081E00C943A130895F1
:100B20008034924061F480912E2291E0980F90934E
:100B30002E22811104C062E082E00C943A130895E1
:100B4000811522E0920761F480912F2281508093D9
:100B50002F22811113C062E081E00C94501308959C
:100B60008034924059F480912E22815080932E221D
:100B7000811104C062E082E00C9450130895EF925A
:100B8000FF921F93CF93DF931F921F92CDB7DEB7D3
:100B90007C018FB78983F8941981C701B0DFF70111
:100BA0008081816080831FBF80914B238F3F09F438
:100BB000FFCF8FB78A83F8949A81EAE4F3E28181C8
:100BC0008F5F81839FBF0F900F90DF91CF911F9117
:100BD000FF90EF9008951F920F920FB60F9211247D
:100BE0000BB60F922F933F934F935F936F937F9327
:100BF0008F939F93AF93BF93EF93FF934091240202
:100C000050912502E0914623F091472361E080E076
:100C100092E01995FF91EF91BF91AF919F918F91C4
:100C20007F916F915F914F913F912F910F900BBEEC
:100C30000F900FBE0F901F9018951F920F920FB636
:100C40000F9211240BB60F922F933F934F935F9304
:100C50006F937F938F939F93AF93BF93EF93FF9384
:100C600040912C0250912D02E0914623F0914723B0
:100C700062E080E092E01995FF91EF91BF91AF9112
:100C80009F918F917F916F915F914F913F912F91A4
:100C90000F900BBE0F900FBE0F901F9018951F92D4
:100CA0000F920FB60F9211240BB60F922F933F9312
:100CB0004F935F936F937F938F939F93AF93BF9364
:100CC000EF93FF934091340250913502E091462317
:100CD000F091472364E080E092E01995FF91EF9155
:100CE000BF91AF919F918F917F916F915F914F9144
:100CF0003F912F910F900BBE0F900FBE0F901F9042
:100D000018951F920F920FB60F9211240BB60F92E7
:100D10002F933F934F935F936F937F938F939F9303
:100D2000AF93BF93EF93FF9340913C0250913D02EC
:100D3000E0914623F091472368E080E092E0199526
:100D4000FF91EF91BF91AF919F918F917F916F91A3
:100D50005F914F913F912F910F900BBE0F900FBE5F
:100D60000F901F9018951F920F920FB60F9211249B
:100D70000BB60F922F933F934F935F936F937F9395
:100D80008F939F93AF93BF93EF93FF934091640230
:100D900050916502E0914423F091452361E080E4A5
:100DA00092E01995FF91EF91BF91AF919F918F9133
:100DB0007F916F915F914F913F912F910F900BBE5B
:100DC0000F900FBE0F901F9018951F920F920FB6A5
:100DD0000F9211240BB60F922F933F934F935F9373
:100DE0006F937F938F939F93AF93BF93EF93FF93F3
:100DF00040916C0250916D02E0914423F0914523A3
:100E000062E080E492E01995FF91EF91BF91AF917C
:100E10009F918F917F916F915F914F913F912F9112
:100E20000F900BBE0F900FBE0F901F9018951F9242
:100E30000F920FB60F9211240BB60F922F933F9380
:100E40004F935F936F937F938F939F93AF93BF93D2
:100E5000EF93FF934091740250917502E091442307
:100E6000F091452364E080E492E01995FF91EF91C1
:100E7000BF91AF919F918F917F916F915F914F91B2
:100E80003F912F910F900BBE0F900FBE0F901F90B0
:100E900018951F920F920FB60F9211240BB60F9256
:100EA0002F933F934F935F936F937F938F939F9372
:100EB000AF93BF93EF93FF9340917C0250917D02DB
:100EC000E0914423F091452368E080E492E0199595
:100ED000FF91EF91BF91AF919F918F917F916F9112
:100EE0005F914F913F912F910F900BBE0F900FBECE
:100EF0000F901F901895BF92CF92DF92EF92FF92C2
:100F00000F931F93CF93DF931F92CDB7DEB78C0162
:100F10007B01811522E0920781F461E270E082E0BA
:100F20000E946513C82ED12C60E270E082E00E941E
:100F30006513DC2CCC24C82A12C080349240D1F531
:100F400065E270E082E00E946513C82ED12C64E255
:100F500070E082E00E946513DC2CCC24C82A8FB795
:100F60008983F894B980C801CADDF801808192E0D4
:100F70009083C486D586F70125813681F801208FBC
:100F8000318FF7019281F8019283F7019481F80182
:100F90009483F7019381F8019383F7019181F8011C
:100FA00091838170F7019081892BF8018083C801BA
:100FB000C7DDBFBE0F90DF91CF911F910F91FF90C2
:100FC000EF90DF90CF90BF900895DF92EF92FF9265
:100FD0000F931F93CF93DF931F92CDB7DEB78C0192
:100FE0007B018FB78983F894D980C80188DDF80127
:100FF0008081807CF7018083F801808D918DF701DD
:1010000085839683F8018281F7018283F8018481C8
:10101000F7018483F8018381F7018383F8018181DB
:10102000F7018183C8018CDDDFBE0F90DF91CF9186
:101030001F910F91FF90EF90DF900895AF92BF92B4
:10104000CF92DF92EF92FF920F931F93CF93DF9394
:101050001F92CDB7DEB76C01B62E7A01862F837052
:1010600029F4962F9695969582E002C0962F80E0FF
:1010700090FF8F5F8601005E1F4F98E0899F000DF3
:10108000111D11248FB78983F894A980C60137DD1B
:10109000F7018081F8018083F7018281F801828362
:1010A000F7018181F8018183B0FE04C0F7018381DB
:1010B000F8018683C60144DDAFBE0F90DF91CF916A
:1010C0001F910F91FF90EF90DF90CF90BF90AF9066
:1010D0000895AF92BF92CF92DF92EF92FF920F935B
:1010E0001F93CF93DF931F92CDB7DEB76C01B62E5F
:1010F0007A01862F837029F4962F9695969582E033
:1011000002C0962F80E090FF8F5F8601005E1F4F28
:1011100098E0899F000D111D11248FB78983F894E1
:10112000A980C601ECDCF8018081F7018083F80119
:101130008281F7018283F8018181F7018183B0FE0A
:1011400004C0F8018681F7018383C601F9DCAFBED4
:101150000F90DF91CF911F910F91FF90EF90DF9053
:10116000CF90BF90AF90089580E180932104E0E29A
:10117000F4E0818184FDFDCF609124047091250409
:10118000809126049091270408951F920F920FB624
:101190000F9211240BB60F922F933F934F935F93AF
:1011A0006F937F938F939F93AF93BF93CF93DF936F
:1011B000EF93FF9310922204C0914823D0914923CA
:1011C000209719F0D1DFFE011995FF91EF91DF9182
:1011D000CF91BF91AF919F918F917F916F915F91CF
:1011E0004F913F912F910F900BBE0F900FBE0F901C
:1011F0001F9018951F920F920FB60F9211240BB6E5
:101200000F922F933F934F935F936F937F938F939F
:101210009F93AF93BF93EF93FF93E0917622F0916A
:101220007722309709F01995FF91EF91BF91AF9117
:101230009F918F917F916F915F914F913F912F91EE
:101240000F900BBE0F900FBE0F901F9018951F921E
:101250000F920FB60F9211240BB60F922F933F935C
:101260004F935F936F937F938F939F93AF93BF93AE
:10127000EF93FF93E0917422F0917522309709F07B
:101280001995FF91EF91BF91AF919F918F917F91B0
:101290006F915F914F913F912F910F900BBE0F90E7
:1012A0000FBE0F901F9018951F920F920FB60F92BE
:1012B00011240BB60F922F933F934F935F936F932D
:1012C0007F938F939F93AF93BF93EF93FF93E0919F
:1012D0007222F0917322309709F01995FF91EF91E6
:1012E000BF91AF919F918F917F916F915F914F913E
:1012F0003F912F910F900BBE0F900FBE0F901F903C
:1013000018951F920F920FB60F9211240BB60F92E1
:101310002F933F934F935F936F937F938F939F93FD
:10132000AF93BF93EF93FF93E0917022F0917122FE
:10133000309709F01995FF91EF91BF91AF919F916F
:101340008F917F916F915F914F913F912F910F906E
:101350000BBE0F900FBE0F901F9018951F920F920B
:101360000FB60F9211240BB60F922F933F934F930A
:101370005F936F937F938F939F93AF93BF93EF93FD
:10138000FF93E0916E22F0916F22309709F019954A
:10139000FF91EF91BF91AF919F918F917F916F914D
:1013A0005F914F913F912F910F900BBE0F900FBE09
:1013B0000F901F9018951F920F920FB60F92112445
:1013C0000BB60F922F933F934F935F936F937F933F
:1013D0008F939F93AF93BF93EF93FF93E0916C2212
:1013E000F0916D22309709F01995FF91EF91BF911F
:1013F000AF919F918F917F916F915F914F913F91AD
:101400002F910F900BBE0F900FBE0F901F9018954D
:101410001F920F920FB60F9211240BB60F922F93BB
:101420003F934F935F936F937F938F939F93AF936C
:10143000BF93EF93FF93E0916A22F0916B22309774
:1014400009F01995FF91EF91BF91AF919F918F9105
:101450007F916F915F914F913F912F910F900BBEB4
:101460000F900FBE0F901F9018951F920F920FB6FE
:101470000F9211240BB60F922F933F934F935F93CC
:101480006F937F938F939F93AF93BF93EF93FF934C
:10149000E0916822F0916922309709F01995FF9147
:1014A000EF91BF91AF919F918F917F916F915F91DC
:1014B0004F913F912F910F900BBE0F900FBE0F9049
:1014C0001F9018951F920F920FB60F9211240BB612
:1014D0000F922F933F934F935F936F937F938F93CD
:1014E0009F93AF93BF93EF93FF93E0916622F091A8
:1014F0006722309709F01995FF91EF91BF91AF9155
:101500009F918F917F916F915F914F913F912F911B
:101510000F900BBE0F900FBE0F901F9018951F924B
:101520000F920FB60F9211240BB60F922F933F9389
:101530004F935F936F937F938F939F93AF93BF93DB
:10154000EF93FF93E0916422F0916522309709F0C8
:101550001995FF91EF91BF91AF919F918F917F91DD
:101560006F915F914F913F912F910F900BBE0F9014
:101570000FBE0F901F9018951F920F920FB60F92EB
:1015800011240BB60F922F933F934F935F936F935A
:101590007F938F939F93AF93BF93EF93FF93E091CC
:1015A0006222F0916322309709F01995FF91EF9133
:1015B000BF91AF919F918F917F916F915F914F916B
:1015C0003F912F910F900BBE0F900FBE0F901F9069
:1015D00018951F920F920FB60F9211240BB60F920F
:1015E0002F933F934F935F936F937F938F939F932B
:1015F000AF93BF93EF93FF93E0916022F09161224C
:10160000309709F01995FF91EF91BF91AF919F919C
:101610008F917F916F915F914F913F912F910F909B
:101620000BBE0F900FBE0F901F9018951F920F9238
:101630000FB60F9211240BB60F922F933F934F9337
:101640005F936F937F938F939F93AF93BF93EF932A
:10165000FF93E0915E22F0915F22309709F0199597
:10166000FF91EF91BF91AF919F918F917F916F917A
:101670005F914F913F912F910F900BBE0F900FBE36
:101680000F901F9018951F920F920FB60F92112472
:101690000BB60F922F933F934F935F936F937F936C
:1016A0008F939F93AF93BF93EF93FF93E0915C224F
:1016B000F0915D22309709F01995FF91EF91BF915C
:1016C000AF919F918F917F916F915F914F913F91DA
:1016D0002F910F900BBE0F900FBE0F901F9018957B
:1016E0001F920F920FB60F9211240BB60F922F93E9
:1016F0003F934F935F936F937F938F939F93AF939A
:10170000BF93EF93FF93E0915A22F0915B223097C1
:1017100009F01995FF91EF91BF91AF919F918F9132
:101720007F916F915F914F913F912F910F900BBEE1
:101730000F900FBE0F901F9018951F920F920FB62B
:101740000F9211240BB60F922F933F934F935F93F9
:101750006F937F938F939F93AF93BF93EF93FF9379
:10176000E0915822F0915922309709F01995FF9194
:10177000EF91BF91AF919F918F917F916F915F9109
:101780004F913F912F910F900BBE0F900FBE0F9076
:101790001F9018951F920F920FB60F9211240BB63F
:1017A0000F922F933F934F935F936F937F938F93FA
:1017B0009F93AF93BF93EF93FF93E0915622F091E5
:1017C0005722309709F01995FF91EF91BF91AF9192
:1017D0009F918F917F916F915F914F913F912F9149
:1017E0000F900BBE0F900FBE0F901F9018951F9279
:1017F0000F920FB60F9211240BB60F922F933F93B7
:101800004F935F936F937F938F939F93AF93BF9308
:10181000EF93FF93E0915422F0915522309709F015
:101820001995FF91EF91BF91AF919F918F917F910A
:101830006F915F914F913F912F910F900BBE0F9041
:101840000FBE0F901F9018951F920F920FB60F9218
:1018500011240BB60F922F933F934F935F936F9387
:101860007F938F939F93AF93BF93EF93FF93E091F9
:101870005222F0915322309709F01995FF91EF9180
:10188000BF91AF919F918F917F916F915F914F9198
:101890003F912F910F900BBE0F900FBE0F901F9096
:1018A00018951F920F920FB60F9211240BB60F923C
:1018B0002F933F934F935F936F937F938F939F9358
:1018C000AF93BF93EF93FF93E0915022F091512299
:1018D000309709F01995FF91EF91BF91AF919F91CA
:1018E0008F917F916F915F914F913F912F910F90C9
:1018F0000BBE0F900FBE0F901F9018951F920F9266
:101900000FB60F9211240BB60F922F933F934F9364
:101910005F936F937F938F939F93AF93BF93EF9357
:10192000FF93E0914E22F0914F22309709F01995E4
:10193000FF91EF91BF91AF919F918F917F916F91A7
:101940005F914F913F912F910F900BBE0F900FBE63
:101950000F901F9018951F920F920FB60F9211249F
:101960000BB60F922F933F934F935F936F937F9399
:101970008F939F93AF93BF93EF93FF93E0914C228C
:10198000F0914D22309709F01995FF91EF91BF9199
:10199000AF919F918F917F916F915F914F913F9107
:1019A0002F910F900BBE0F900FBE0F901F901895A8
:1019B0001F920F920FB60F9211240BB60F922F9316
:1019C0003F934F935F936F937F938F939F93AF93C7
:1019D000BF93EF93FF93E0914A22F0914B2230970F
:1019E00009F01995FF91EF91BF91AF919F918F9160
:1019F0007F916F915F914F913F912F910F900BBE0F
:101A00000F900FBE0F901F9018951F920F920FB658
:101A10000F9211240BB60F922F933F934F935F9326
:101A20006F937F938F939F93AF93BF93EF93FF93A6
:101A3000E0914822F0914922309709F01995FF91E1
:101A4000EF91BF91AF919F918F917F916F915F9136
:101A50004F913F912F910F900BBE0F900FBE0F90A3
:101A60001F9018951F920F920FB60F9211240BB66C
:101A70000F922F933F934F935F936F937F938F9327
:101A80009F93AF93BF93EF93FF93E0914622F09122
:101A90004722309709F01995FF91EF91BF91AF91CF
:101AA0009F918F917F916F915F914F913F912F9176
:101AB0000F900BBE0F900FBE0F901F9018951F92A6
:101AC0000F920FB60F9211240BB60F922F933F93E4
:101AD0004F935F936F937F938F939F93AF93BF9336
:101AE000EF93FF93E0914422F0914522309709F063
:101AF0001995FF91EF91BF91AF919F918F917F9138
:101B00006F915F914F913F912F910F900BBE0F906E
:101B10000FBE0F901F9018951F920F920FB60F9245
:101B200011240BB60F922F933F934F935F936F93B4
:101B30007F938F939F93AF93BF93EF93FF93E09126
:101B40004222F0914322309709F01995FF91EF91CD
:101B5000BF91AF919F918F917F916F915F914F91C5
:101B60003F912F910F900BBE0F900FBE0F901F90C3
:101B700018951F920F920FB60F9211240BB60F9269
:101B80002F933F934F935F936F937F938F939F9385
:101B9000AF93BF93EF93FF93E0914022F0914122E6
:101BA000309709F01995FF91EF91BF91AF919F91F7
:101BB0008F917F916F915F914F913F912F910F90F6
:101BC0000BBE0F900FBE0F901F9018951F920F9293
:101BD0000FB60F9211240BB60F922F933F934F9392
:101BE0005F936F937F938F939F93AF93BF93EF9385
:101BF000FF93E0913E22F0913F22309709F0199532
:101C0000FF91EF91BF91AF919F918F917F916F91D4
:101C10005F914F913F912F910F900BBE0F900FBE90
:101C20000F901F9018951F920F920FB60F921124CC
:101C30000BB60F922F933F934F935F936F937F93C6
:101C40008F939F93AF93BF93EF93FF93E0913C22C9
:101C5000F0913D22309709F01995FF91EF91BF91D6
:101C6000AF919F918F917F916F915F914F913F9134
:101C70002F910F900BBE0F900FBE0F901F901895D5
:101C80001F920F920FB60F9211240BB60F922F9343
:101C90003F934F935F936F937F938F939F93AF93F4
:101CA000BF93EF93FF93E0913A22F0913B2230975C
:101CB00009F01995FF91EF91BF91AF919F918F918D
:101CC0007F916F915F914F913F912F910F900BBE3C
:101CD0000F900FBE0F901F9018951F920F920FB686
:101CE0000F9211240BB60F922F933F934F935F9354
:101CF0006F937F938F939F93AF93BF93EF93FF93D4
:101D0000E0913822F0913922309709F01995FF912E
:101D1000EF91BF91AF919F918F917F916F915F9163
:101D20004F913F912F910F900BBE0F900FBE0F90D0
:101D30001F9018951F920F920FB60F9211240BB699
:101D40000F922F933F934F935F936F937F938F9354
:101D50009F93AF93BF93EF93FF93E0913622F0915F
:101D60003722309709F01995FF91EF91BF91AF910C
:101D70009F918F917F916F915F914F913F912F91A3
:101D80000F900BBE0F900FBE0F901F9018951F92D3
:101D90000F920FB60F9211240BB60F922F933F9311
:101DA0004F935F936F937F938F939F93AF93BF9363
:101DB000EF93FF93E0913422F0913522309709F0B0
:101DC0001995FF91EF91BF91AF919F918F917F9165
:101DD0006F915F914F913F912F910F900BBE0F909C
:101DE0000FBE0F901F9018951F920F920FB60F9273
:101DF00011240BB60F922F933F934F935F936F93E2
:101E00007F938F939F93AF93BF93EF93FF93E09153
:101E10003222F0913322309709F01995FF91EF911A
:101E2000BF91AF919F918F917F916F915F914F91F2
:101E30003F912F910F900BBE0F900FBE0F901F90F0
:101E400018951F920F920FB60F9211240BB60F9296
:101E50002F933F934F935F936F937F938F939F93B2
:101E6000AF93BF93EF93FF93E0913022F091312233
:101E7000309709F01995FF91EF91BF91AF919F9124
:101E80008F917F916F915F914F913F912F910F9023
:101E90000BBE0F900FBE0F901F9018951F93CF93FE
:101EA000DF931F921F92CDB7DEB72FB72A83F89426
:101EB0001A81282F392F211588E0380739F461E07D
:101EC00083E0D8D364E083E0D5D343C0203488E0F6
:101ED000380739F462E083E0CDD364E083E0CAD30D
:101EE00038C0211589E0380739F461E084E0C2D3B5
:101EF00064E084E0BFD32DC0203489E0380739F492
:101F000062E084E0B7D364E084E0B4D322C021155A
:101F10008AE0380739F461E085E0ACD364E085E01D
:101F2000A9D317C020348AE0380739F462E085E08D
:101F3000A1D364E085E09ED30CC021153B4039F469
:101F400061E086E097D364E086E094D302C01FBFCF
:101F500010C080914B238F3F09F4FFCF8FB7898347
:101F6000F8949981EAE4F3E281818F5F81839FBFD6
:101F70001FBF0F900F90DF91CF911F910895811592
:101F800028E0920729F460937622709377220895CF
:101F9000803428E0920729F460936A2270936B22C0
:101FA0000895811529E0920729F4609362227093C5
:101FB00063220895803429E0920729F46093562221
:101FC00070935722089581152AE0920729F46093AF
:101FD0004E2270934F22089580342AE0920729F40C
:101FE0006093422270934322089581159B4021F40F
:101FF00060933A2270933B220895CF92DF92EF9242
:10200000FF920F931F93CF93DF93EC01D901C80187
:10201000B695A79597958795481759076A077B073F
:1020200070F46A017B01CC0CDD1CEE1CFF1CC901A5
:10203000B801A7019601F6D52150310902C020E070
:1020400030E0832F8F708F832E83DF91CF911F918C
:102050000F91FF90EF90DF90CF900895DF92EF9275
:10206000FF920F931F93CF93DF931F92CDB7DEB7ED
:102070007C018B01009709F4B2C1803C910521F4E9
:1020800060E180E0F7D2ABC180E8E81681E0F806B5
:1020900021F462E080E0EED2A2C1E114E1E0FE06AC
:1020A00021F461E080E0E6D29AC1F0E8EF16F3E0B7
:1020B000FF0621F461E081E0DDD291C130E9E31651
:1020C00033E0F30621F461E082E0D4D288C1E11468
:1020D00082E0F80621F462E081E0CCD280C1E0E445
:1020E000EE16E2E0FE0621F462E082E0C3D277C1A0
:1020F000F0E2EF16F3E0FF0621F464E082E0BAD2EA
:102100006EC1E11438E0F30621F461E083E0B2D25D
:1021100066C1E11489E0F80621F461E084E0AAD206
:102120005EC1E114EAE0FE0621F461E085E0A2D29E
:1021300056C1E114FBE0FF0621F461E086E09AD28B
:102140004EC130E4E31638E0F30621F462E083E0A8
:1021500091D245C180E4E81689E0F80621F462E0F6
:1021600084E088D23CC1E0E4EE16EAE0FE0621F409
:1021700062E085E07FD233C1F0E9EF16F8E0FF06B8
:1021800021F464E083E076D22AC130E9E31639E035
:10219000F30621F464E084E06DD221C180E9E81601
:1021A0008AE0F80621F464E085E064D218C1E0E931
:1021B000EE16EBE0FE0621F464E086E05BD20FC190
:1021C000F0ECEF16F8E0FF0621F468E083E052D26D
:1021D00006C130ECE31639E0F30621F468E084E050
:1021E00049D2FDC080EAE81688E0F80661F460E1B3
:1021F00083E040D2E0EAF8E084818F7E8483F801B6
:10220000248122504CC0F0EAEF16F9E0FF0621F4D9
:1022100060E184E02FD2E3C030EAE3163AE0F3064F
:1022200021F460E185E026D2DAC080EAE8168BE08E
:10223000F80621F460E186E01DD2D1C0E0EBEE1695
:10224000E8E0FE0621F460E283E014D2C8C0F0EBBF
:10225000EF16F9E0FF0621F460E284E00BD2BFC084
:1022600030E8E31634E0F30621F460E483E002D2C0
:10227000B6C080EAE81684E0F80621F460E485E060
:10228000F9D1ADC0F70184818F7E8483FB01248165
:102290002250C701F0EAEF16F8E0FF0649F48091FA
:1022A0004E0684FDA5C00F2EF1E1DF2EF02DA4C057
:1022B000803B38E0930791F0803AE9E09E0749F4CB
:1022C00030916E0634FD9BC00F2EF9E1DF2EF02D0C
:1022D00016C0803BF9E09F07F1F004C00F2EF5E136
:1022E000DF2EF02D803A3AE0930749F480918E0674
:1022F00084FD8AC00F2EF1E2DF2EF02D15C0803A4A
:102300009B4091F48091AE0684FD0AC00F2EF9E245
:10231000DF2EF02D09C00F2EFDE1DF2EF02D04C0C1
:102320000F2EFDE2DF2EF02DED2DE695E695E695DC
:1023300030E2E39FF0011124FA5F3D2D377081E018
:1023400090E0032E02C0880F991F0A94E2F7818360
:10235000223010F040E001C040E4DF015096A30FAE
:10236000B11D9FB79983F89439812C9127702C93D4
:102370009C91942B9C933FBF8583F7018581806C52
:102380008583F80184818D7F813029F4F70185816F
:102390008260858304C0F70185818D7F8583F80184
:1023A0008581882329F0F70185818460858304C0B5
:1023B000F70185818B7F8583F8014081518162819E
:1023C000738100E814E82EE130E0C70116DEF70162
:1023D0008481886084838481806184831AC0F7014A
:1023E00084818F7E8483F80124812250C70160CFCD
:1023F0000F2EF5E1DF2EF02D80EA98E06ACF0F2E48
:10240000FDE1DF2EF02D7BCF0F2EF5E2DF2EF02D3C
:102410008BCF0F90DF91CF911F910F91FF90EF9095
:10242000DF900895803A28E0920721F460E183E08C
:1024300021C10895803B28E0920721F460E283E007
:1024400019C10895803A29E0920721F460E184E0FF
:1024500011C10895803B29E0920721F460E284E0F5
:1024600009C10895803A2AE0920721F460E185E0ED
:1024700001C10895803A9B4019F460E186E0FAC0FA
:1024800008950F931F93CF93DF9300D000D0CDB763
:10249000DEB709831A832B833C834D831E82BE01E2
:1024A0006F5F7F4FDBDD2696CDBFDEBFDF91CF9123
:1024B0001F910F910895FB018081E82FE695E69525
:1024C000E69540E2E49FF0011124FA5F877021E075
:1024D00030E0A90102C0440F551F8A95E2F74683F8
:1024E0000895FB018081E82FE695E695E69540E2A8
:1024F000E49FF0011124FA5F877021E030E0A90128
:1025000002C0440F551F8A95E2F7458308958093D2
:10251000782290937922089520917822309179221F
:1025200090E8899F200D311D1124F901E60FF11D5E
:1025300040830895209178223091792290E8899FF4
:10254000200D311D1124F901E60FF11D8081089540
:10255000FF920F931F93CF93DF93E42FF0E0E80FE8
:10256000F11DE138F1051CF0C0E84C2F481B442355
:1025700009F450C0D62FD695D695D69570E098E040
:10258000D99F601971091124E1E0F0E0DF0102C078
:10259000AA0FBB1F6A95E2F7FA2E213021F0A8F0AE
:1025A000223039F137C0C42F1FEF180F012F0C0F45
:1025B000602F8D2F0E947C054F2D482B602F8D2F73
:1025C0000E945004C15091F725C0C42F1FEF180F6F
:1025D000FA2EF094012F0C0F602F8D2F0E947C0596
:1025E0004F2D4823602F8D2F0E945004C15091F72A
:1025F00011C0C42F1FEF180F012F0C0F602F8D2F4C
:102600000E947C054F2D4827602F8D2F0E9450047B
:10261000C15091F7DF91CF911F910F91FF900895D5
:10262000FF920F931F93CF93DF93222369F0F42E31
:10263000182FC22FDFEFD60F6D2F6C0F202F4F2DCD
:10264000812F86DFC150C1F7DF91CF911F910F918C
:10265000FF9008958FEF80937000809371008093B6
:102660007200809373008093740080937500809350
:1026700076000895CF93DF931F92CDB7DEB79FB753
:102680009983F8949981E82FF0E0E059FF4F609525
:102690008081682360839FBF0F90DF91CF91089561
:1026A000CF93DF931F92CDB7DEB79FB79983F8948E
:1026B0009981E82FF0E0E059FF4F8081682B60831B
:1026C0009FBF0F90DF91CF9108954091CA01E62FEF
:1026D000F72F8093CA0184914093CA010895AF9265
:1026E000BF92CF92DF92EF92FF920F931F93CF93FF
:1026F000DF93C82FE62EB42E690100E0F901248192
:1027000043816B2D8E2D8CDFF601808181113AC0C3
:102710008381282F269526952695877009F02F5FAF
:10272000F601A4808C2F90E03581831B91092A9DAE
:1027300090011124829FA001839F500D929F500D04
:10274000112401811281040F151FF601F380FF206F
:10275000A9F0D0E0C0E08E2D8C0F9C2F977021F453
:10276000F801D4910F5F1F4FDD2324F441E06B2D5E
:102770000E944505DD0FCF5FFC12EDCFB394AA9404
:10278000A110E3CFDF91CF911F910F91FF90EF90B8
:10279000DF90CF90BF90AF900895DF92EF92FF92BD
:1027A0000F931F93CF93DF93D62E042F7901EC0163
:1027B000162F89918A3031F4F70184818F5F080FD9
:1027C0001D2D09C08D3039F09701402F612F87DF13
:1027D000F7018381180F88818111EBCFDF91CF91B1
:1027E0001F910F91FF90EF90DF900895CF93DF93AB
:1027F000FC0120E030E0C62FD0E0DE01022E02C056
:10280000B595A7950A94E2F7A0FD508B2F5F3F4F37
:1028100031962830310589F740FF0AC041FF03C0D7
:10282000FC01658302C0FC016683FC01618302C078
:10283000FC016283DF91CF91089543E050E061E0B5
:1028400080EE97E0D3DF43E050E062E080EE97E077
:10285000CDDF43E050E060E180E696E0C7DF41E095
:1028600050E460E280E696E0C1DF40E05BE160E2D8
:1028700080E896E0BBDF40E05BE162E080EA96E062
:10288000B5DF40E05BE164E080EA96E0AFDF43E083
:1028900050E062E080E696E0A9DF43E050E068E0C7
:1028A00080E696E0A3DF43E050E068E080EA96E04F
:1028B0009DDF43E050E061E080E696E097DF43E093
:1028C00050E068E080E096E091DF41E050E060E1B8
:1028D00080E896E08BDF43E050E062E080E696E03F
:1028E00085DF43E050E068E080E696E07FDF40E08F
:1028F00050E064E080E696E079DF43E050E060E19C
:1029000080EA96E073DF40E050E061E080E096E02E
:102910006DDF40E050E064E080E096E067DF40E09B
:1029200050E062E080E296E061DF43E050E068E082
:1029300080E496E05BDF40E050E064E080E496E015
:1029400055DF43E050E068E080E696E04FDF40E08E
:1029500050E064E080E696E049DF43E050E068E064
:1029600080E896E043DF40E050E064E080E896E0F5
:102970003DCF089504C06150710981099109611525
:10298000710581059105B9F70895809142239091D1
:10299000432301968093422390934323089580E03C
:1029A00098E07CDA65EC74E180E098E0E8DAE0E059
:1029B000F8E08181887F818387E090E086A397A3F8
:1029C00086818C7F86838681836086838081807FF9
:1029D000816080830895FF920F931F93CF93DF93BD
:1029E000062FF72E9F938F9387E090E29F938F930C
:1029F0001F9218EC1F93CAE7D2E2DF93CF9334D132
:102A000020E030E240E060E0CE01C7DEFF920F93AD
:102A100088E190E29F938F931F921F93DF93CF9350
:102A200023D120E030E248E060E0CE01B6DE8DB791
:102A30009EB740968DBF9EBFDF91CF911F910F91A2
:102A4000FF9008956B3071054CF48B3F910508F5AC
:102A500081E0809346068093860608958A3F91051B
:102A600030F481E0809345068093860608956A30AD
:102A700071054CF48B3F910530F081E08093460660
:102A800080938506089581E08093450680938506AE
:102A900008956A307105BCF7F0CFCF93DF93CDB7BF
:102AA000DEB72B97CDBFDEBFC8DED4DD87E08093D5
:102AB000A2000E940005BE016F5F7F4F80E092E0A0
:102AC0000E94E507AE01485F5F4F61E080E092E061
:102AD0000E9469088A819B819F7890649B83817E94
:102AE00084608A831C8282E08D83BE016F5F7F4F8A
:102AF00080E092E00E947B0781E0888780E58987FB
:102B0000AE01485F5F4F64E080E092E00E941E08E3
:102B1000E0E4F6E0808181608083E0E8F6E0808197
:102B20008160808380E1858364E080E0A3DDE0E272
:102B3000F4E0818180FDFDCF66E176E185E090E003
:102B400019DF2DDF00E216E055245A94E12C689439
:102B5000FF24F1F86894442442F80F2EF0E36F2E1E
:102B6000F2E07F2EF02D0F2EF1E18F2E912CF02D23
:102B7000F80150821482548262E070E080E090E0BC
:102B8000F9DEF801148210826BEF70E080E090E0D3
:102B9000F1DEC0904223D090432367E270E080E0F2
:102BA00090E0E8DE7894F801808580FDFCCF80918C
:102BB000422390914323F8948C199D096C011AF4D7
:102BC000FFEFCF1ADF0AD594C794C7010E94BF0553
:102BD0008FB78983F8949981F70180818061808320
:102BE0009FBFF701868182FFFCCF46826EE471E0D1
:102BF00080E090E0BFDEF301A480B580C4018C19B1
:102C00009D096C01BC01C501E6DEB601C5011ADFF4
:102C100066E372E880E090E0ADDE1092422310920D
:102C20004323A6CFA1E21A2EAA1BBB1BFD010DC098
:102C3000AA1FBB1FEE1FFF1FA217B307E407F5076C
:102C400020F0A21BB30BE40BF50B661F771F881F48
:102C5000991F1A9469F760957095809590959B01DE
:102C6000AC01BD01CF0108950F931F93CF93DF9364
:102C7000CDB7DEB72E97CDBFDEBF0E891F89888DF9
:102C8000998D26E02C8309831A8397FF02C080E088
:102C900090E801978D839E83AE01445E5F4F6A8DFD
:102CA0007B8DCE01019616D04D815E8157FD0AC005
:102CB0002F813885421753070CF49A01F801E20F6F
:102CC000F31F10822E96CDBFDEBFDF91CF911F91F3
:102CD0000F9108952F923F924F925F926F927F9241
:102CE0008F929F92AF92BF92CF92DF92EF92FF921C
:102CF0000F931F93CF93DF93CDB7DEB72B97CDBF45
:102D0000DEBF6C017B018A01FC0116821782838180
:102D100081FFBFC1CE0101963C01F6019381F7010D
:102D200093FD859193FF81917F01882309F4ADC1C3
:102D3000853239F493FD859193FF81917F0185322E
:102D400021F4B60190E0D3D1E8CF912C212C312C85
:102D5000FFE1F315D8F08B3279F038F4803279F056
:102D60008332A1F4232D20611DC08D3261F08033A8
:102D700069F4232D216016C0832D8260382EE32D47
:102D8000E4603E2E2AC0F32DF8601DC037FC2DC034
:102D900020ED280F2A3040F08E32B9F436FC75C190
:102DA000232D2064322E19C036FE06C08AE0989E7C
:102DB000200D1124922E11C0EAE02E9E200D112428
:102DC000222EF32DF0623F2E08C08C3621F4832D85
:102DD0008068382E02C0883641F4F70193FD859152
:102DE00093FF81917F018111B3CF982F9F7D9554DF
:102DF000933028F40C5F1F4F9FE399830DC08336F7
:102E000031F0833771F0833509F055C020C0F801E7
:102E1000808189830E5F1F4F88248394912C5301F6
:102E200012C02801F2E04F0E511CF801A080B180C1
:102E300036FE03C0692D70E002C06FEF7FEFC50161
:102E40004BD14C018201F32DFF773F2E15C0280195
:102E500022E0420E511CF801A080B18036FE03C072
:102E6000692D70E002C06FEF7FEFC5012AD14C01E0
:102E7000F32DF0683F2E820133FC19C0822D90E0C3
:102E800088169906A0F4B60180E290E030D12A9429
:102E9000F5CFF50137FC859137FE81915F01B601D1
:102EA00090E025D121102A9421E0821A9108811402
:102EB000910479F7E1C0843611F0893639F5F801CB
:102EC00037FE07C060817181828193810C5F1F4F43
:102ED00008C060817181072E000C880B990B0E5F72
:102EE0001F4FF32DFF763F2E97FF09C090958095D9
:102EF000709561957F4F8F4F9F4FF0683F2E2AE06E
:102F000030E0A30130D1882E861844C0853731F4D3
:102F1000232D2F7EB22E2AE030E025C0932D997FFD
:102F2000B92E8F36C1F018F4883579F0AEC08037ED
:102F300019F0883721F0A9C0E92FE061BE2EB4FE58
:102F40000DC0FB2DF460BF2E09C034FE0AC0292F2E
:102F50002660B22E06C028E030E005C020E130E057
:102F600002C020E132E0F801B7FE07C06081718144
:102F7000828193810C5F1F4F06C06081718180E068
:102F800090E00E5F1F4FA301EED0882E8618FB2D18
:102F9000FF773F2E36FE0DC0232D2E7FA22E8914E3
:102FA00058F434FE0BC032FC09C0832D8E7EA82E4F
:102FB00005C0B82CA32C03C0B82C01C0B92CA4FEAA
:102FC0000FC0FE01E80DF11D8081803321F49A2DA0
:102FD000997EA92E09C0A2FE06C0B394B39404C082
:102FE0008A2D867809F0B394A3FC10C0A0FE06C019
:102FF000B21480F4280C922C9B180DC0B21458F413
:10300000B60180E290E073D0B394F8CFB21418F414
:103010002B1802C0982C212CA4FE0FC0B60180E30F
:1030200090E065D0A2FE16C0A1FC03C088E790E046
:1030300002C088E590E0B6010CC08A2D867851F078
:10304000A1FE02C08BE201C080E2A7FC8DE2B601C6
:1030500090E04DD0891430F4B60180E390E047D081
:103060009A94F8CF8A94F301E80DF11D8081B6019E
:1030700090E03DD08110F6CF222009F44ECEB6016B
:1030800080E290E034D02A94F7CFF60186819781D0
:1030900002C08FEF9FEF2B96CDBFDEBFDF91CF91A8
:1030A0001F910F91FF90EF90DF90CF90BF90AF9066
:1030B0009F908F907F906F905F904F903F902F9058
:1030C0000895FC010590615070400110D8F780957B
:1030D00090958E0F9F1F0895FC01615070400190E4
:1030E0000110D8F7809590958E0F9F1F08950F932C
:1030F0001F93CF93DF93FB01238121FD03C08FEF4B
:103100009FEF2CC022FF16C0468157812481358154
:103110004217530744F4A081B1819D012F5F3F4FB7
:10312000208331838C93268137812F5F3F4F268305
:10313000378314C08B01EC01FB010084F185E02D85
:103140001995892BE1F6D80116968D919C911797C8
:10315000019616968D939C931797CE01DF91CF9190
:103160001F910F910895FA01AA27283051F12031BB
:1031700081F1E8946F936E7F6E5F7F4F8F4F9F4F0B
:10318000AF4FB1E03ED0B4E03CD0670F781F891F4D
:103190009A1FA11D680F791F8A1F911DA11D6A0F1B
:1031A000711D811D911DA11D20D009F468943F91CE
:1031B0002AE0269F11243019305D3193DEF6CF01CD
:1031C0000895462F4770405D4193B3E00FD0C9F793
:1031D000F6CF462F4F70405D4A3318F0495D31FD00
:1031E0004052419302D0A9F7EACFB4E0A695979553
:1031F000879577956795BA95C9F700976105710529
:1032000008959B01AC010A2E069457954795379572
:103210002795BA95C9F7620F731F841F951FA01DCC
:063220000895F894FFCFB1
:1032260000FC010607207D426572617420547275A8
:103236006B203A202536640054696E67676920540E
:0E32460072756B203A20256420636D202000F5
:00000001FF
